{
  "contractName": "TweetController",
  "abi": [
    {
      "inputs": [],
      "name": "ownerAddr",
      "outputs": [
        {
          "internalType": "address",
          "name": "",
          "type": "address"
        }
      ],
      "stateMutability": "view",
      "type": "function",
      "constant": true
    },
    {
      "inputs": [
        {
          "internalType": "address",
          "name": "_managerAddr",
          "type": "address"
        }
      ],
      "name": "setManagerAddr",
      "outputs": [],
      "stateMutability": "nonpayable",
      "type": "function"
    },
    {
      "inputs": [
        {
          "internalType": "address",
          "name": "_newOwner",
          "type": "address"
        }
      ],
      "name": "transferOwnership",
      "outputs": [],
      "stateMutability": "nonpayable",
      "type": "function"
    },
    {
      "inputs": [
        {
          "internalType": "uint256",
          "name": "_userId",
          "type": "uint256"
        },
        {
          "internalType": "string",
          "name": "_text",
          "type": "string"
        }
      ],
      "name": "createTweet",
      "outputs": [
        {
          "internalType": "uint256",
          "name": "",
          "type": "uint256"
        }
      ],
      "stateMutability": "nonpayable",
      "type": "function"
    }
  ],
  "bytecode": "0x608060405234801561001057600080fd5b50336000806101000a81548173ffffffffffffffffffffffffffffffffffffffff021916908373ffffffffffffffffffffffffffffffffffffffff160217905550610835806100606000396000f3fe608060405234801561001057600080fd5b506004361061004c5760003560e01c80637978b231146100515780637cc82f201461006d5780639c675eaa1461009d578063f2fde38b146100bb575b600080fd5b61006b60048036038101906100669190610478565b6100d7565b005b610087600480360381019061008291906104f3565b610173565b60405161009491906105fc565b60405180910390f35b6100a56102c3565b6040516100b291906105c1565b60405180910390f35b6100d560048036038101906100d09190610478565b6102e7565b005b60008054906101000a900473ffffffffffffffffffffffffffffffffffffffff1673ffffffffffffffffffffffffffffffffffffffff163373ffffffffffffffffffffffffffffffffffffffff161461012f57600080fd5b80600160006101000a81548173ffffffffffffffffffffffffffffffffffffffff021916908373ffffffffffffffffffffffffffffffffffffffff16021790555050565b600080600160009054906101000a900473ffffffffffffffffffffffffffffffffffffffff16905060008173ffffffffffffffffffffffffffffffffffffffff1663bf40fac16040518163ffffffff1660e01b81526004016101d4906105dc565b60206040518083038186803b1580156101ec57600080fd5b505afa158015610200573d6000803e3d6000fd5b505050506040513d601f19601f8201168201806040525081019061022491906104a1565b905060008190508073ffffffffffffffffffffffffffffffffffffffff16637cc82f2087876040518363ffffffff1660e01b8152600401610266929190610617565b602060405180830381600087803b15801561028057600080fd5b505af1158015610294573d6000803e3d6000fd5b505050506040513d601f19601f820116820180604052508101906102b891906104ca565b935050505092915050565b60008054906101000a900473ffffffffffffffffffffffffffffffffffffffff1681565b60008054906101000a900473ffffffffffffffffffffffffffffffffffffffff1673ffffffffffffffffffffffffffffffffffffffff163373ffffffffffffffffffffffffffffffffffffffff161461033f57600080fd5b600073ffffffffffffffffffffffffffffffffffffffff168173ffffffffffffffffffffffffffffffffffffffff16141561037957600080fd5b806000806101000a81548173ffffffffffffffffffffffffffffffffffffffff021916908373ffffffffffffffffffffffffffffffffffffffff16021790555050565b60006103cf6103ca8461066c565b610647565b9050828152602081018484840111156103e757600080fd5b6103f28482856106f5565b509392505050565b600081359050610409816107d1565b92915050565b60008151905061041e816107d1565b92915050565b600082601f83011261043557600080fd5b81356104458482602086016103bc565b91505092915050565b60008135905061045d816107e8565b92915050565b600081519050610472816107e8565b92915050565b60006020828403121561048a57600080fd5b6000610498848285016103fa565b91505092915050565b6000602082840312156104b357600080fd5b60006104c18482850161040f565b91505092915050565b6000602082840312156104dc57600080fd5b60006104ea84828501610463565b91505092915050565b6000806040838503121561050657600080fd5b60006105148582860161044e565b925050602083013567ffffffffffffffff81111561053157600080fd5b61053d85828601610424565b9150509250929050565b610550816106b9565b82525050565b60006105618261069d565b61056b81856106a8565b935061057b818560208601610704565b61058481610797565b840191505092915050565b600061059c600c836106a8565b91506105a7826107a8565b602082019050919050565b6105bb816106eb565b82525050565b60006020820190506105d66000830184610547565b92915050565b600060208201905081810360008301526105f58161058f565b9050919050565b600060208201905061061160008301846105b2565b92915050565b600060408201905061062c60008301856105b2565b818103602083015261063e8184610556565b90509392505050565b6000610651610662565b905061065d8282610737565b919050565b6000604051905090565b600067ffffffffffffffff82111561068757610686610768565b5b61069082610797565b9050602081019050919050565b600081519050919050565b600082825260208201905092915050565b60006106c4826106cb565b9050919050565b600073ffffffffffffffffffffffffffffffffffffffff82169050919050565b6000819050919050565b82818337600083830152505050565b60005b83811015610722578082015181840152602081019050610707565b83811115610731576000848401525b50505050565b61074082610797565b810181811067ffffffffffffffff8211171561075f5761075e610768565b5b80604052505050565b7f4e487b7100000000000000000000000000000000000000000000000000000000600052604160045260246000fd5b6000601f19601f8301169050919050565b7f547765657453746f726167650000000000000000000000000000000000000000600082015250565b6107da816106b9565b81146107e557600080fd5b50565b6107f1816106eb565b81146107fc57600080fd5b5056fea2646970667358221220d0859f1acffeedeb5f3ad3ddf344d8fef75b45400b387bf7e4f9127763e0789364736f6c63430008020033",
  "immutableReferences": {},
  "source": "pragma solidity ^0.8.2;\n\nimport '../helpers/BaseController.sol';\nimport '../ContractManager.sol';\nimport './TweetStorage.sol';\n\ncontract TweetController is BaseController {\n\n  function createTweet(uint _userId, string memory _text) public returns(uint) {\n    ContractManager _manager = ContractManager(managerAddr);\n\n    address _tweetStorageAddr = _manager.getAddress(\"TweetStorage\");\n    TweetStorage _tweetStorage = TweetStorage(_tweetStorageAddr);\n\n    return _tweetStorage.createTweet(_userId, _text);\n  }\n  \n}",
  "sourcePath": "/Users/adamgee/Projects/adamatronix/tweether/contracts/tweets/TweetController.sol",
  "compiler": {
    "name": "solc",
    "version": "0.8.2+commit.661d1103.Emscripten.clang"
  },
  "schemaVersion": "3.3.4",
  "updatedAt": "2021-03-18T06:58:43.878Z",
  "networkType": "ethereum",
  "devdoc": {
    "kind": "dev",
    "methods": {},
    "version": 1
  },
  "userdoc": {
    "kind": "user",
    "methods": {},
    "version": 1
  }
}