{
  "contractName": "TweetStorage",
  "abi": [
    {
      "inputs": [],
      "name": "controllerAddr",
      "outputs": [
        {
          "internalType": "address",
          "name": "",
          "type": "address"
        }
      ],
      "stateMutability": "view",
      "type": "function",
      "constant": true
    },
    {
      "inputs": [],
      "name": "ownerAddr",
      "outputs": [
        {
          "internalType": "address",
          "name": "",
          "type": "address"
        }
      ],
      "stateMutability": "view",
      "type": "function",
      "constant": true
    },
    {
      "inputs": [
        {
          "internalType": "address",
          "name": "_controllerAddr",
          "type": "address"
        }
      ],
      "name": "setControllerAddr",
      "outputs": [],
      "stateMutability": "nonpayable",
      "type": "function"
    },
    {
      "inputs": [
        {
          "internalType": "address",
          "name": "_newOwner",
          "type": "address"
        }
      ],
      "name": "transferOwnership",
      "outputs": [],
      "stateMutability": "nonpayable",
      "type": "function"
    },
    {
      "inputs": [
        {
          "internalType": "uint256",
          "name": "",
          "type": "uint256"
        }
      ],
      "name": "tweets",
      "outputs": [
        {
          "internalType": "uint256",
          "name": "id",
          "type": "uint256"
        },
        {
          "internalType": "string",
          "name": "text",
          "type": "string"
        },
        {
          "internalType": "uint256",
          "name": "userId",
          "type": "uint256"
        },
        {
          "internalType": "uint256",
          "name": "postedAt",
          "type": "uint256"
        }
      ],
      "stateMutability": "view",
      "type": "function",
      "constant": true
    },
    {
      "inputs": [
        {
          "internalType": "uint256",
          "name": "_userId",
          "type": "uint256"
        },
        {
          "internalType": "string",
          "name": "_text",
          "type": "string"
        }
      ],
      "name": "createTweet",
      "outputs": [
        {
          "internalType": "uint256",
          "name": "",
          "type": "uint256"
        }
      ],
      "stateMutability": "nonpayable",
      "type": "function"
    }
  ],
  "bytecode": "0x6080604052600060035534801561001557600080fd5b50336000806101000a81548173ffffffffffffffffffffffffffffffffffffffff021916908373ffffffffffffffffffffffffffffffffffffffff1602179055506109f8806100656000396000f3fe608060405234801561001057600080fd5b50600436106100625760003560e01c80636981fa7d146100675780637cc82f20146100835780639c675eaa146100b3578063e8d857b0146100d1578063ee255c5714610104578063f2fde38b14610122575b600080fd5b610081600480360381019061007c91906105db565b61013e565b005b61009d6004803603810190610098919061062d565b6101da565b6040516100aa91906106f3565b60405180910390f35b6100bb6102cf565b6040516100c891906106d8565b60405180910390f35b6100eb60048036038101906100e69190610604565b6102f3565b6040516100fb949392919061070e565b60405180910390f35b61010c6103ab565b60405161011991906106d8565b60405180910390f35b61013c600480360381019061013791906105db565b6103d1565b005b60008054906101000a900473ffffffffffffffffffffffffffffffffffffffff1673ffffffffffffffffffffffffffffffffffffffff163373ffffffffffffffffffffffffffffffffffffffff161461019657600080fd5b80600160006101000a81548173ffffffffffffffffffffffffffffffffffffffff021916908373ffffffffffffffffffffffffffffffffffffffff16021790555050565b6000600160009054906101000a900473ffffffffffffffffffffffffffffffffffffffff1673ffffffffffffffffffffffffffffffffffffffff163373ffffffffffffffffffffffffffffffffffffffff161461023657600080fd5b60036000815480929190610249906108ad565b919050555060405180608001604052806003548152602001838152602001848152602001428152506002600060035481526020019081526020016000206000820151816000015560208201518160010190805190602001906102ac9291906104a6565b506040820151816002015560608201518160030155905050600354905092915050565b60008054906101000a900473ffffffffffffffffffffffffffffffffffffffff1681565b600260205280600052604060002060009150905080600001549080600101805461031c9061084a565b80601f01602080910402602001604051908101604052809291908181526020018280546103489061084a565b80156103955780601f1061036a57610100808354040283529160200191610395565b820191906000526020600020905b81548152906001019060200180831161037857829003601f168201915b5050505050908060020154908060030154905084565b600160009054906101000a900473ffffffffffffffffffffffffffffffffffffffff1681565b60008054906101000a900473ffffffffffffffffffffffffffffffffffffffff1673ffffffffffffffffffffffffffffffffffffffff163373ffffffffffffffffffffffffffffffffffffffff161461042957600080fd5b600073ffffffffffffffffffffffffffffffffffffffff168173ffffffffffffffffffffffffffffffffffffffff16141561046357600080fd5b806000806101000a81548173ffffffffffffffffffffffffffffffffffffffff021916908373ffffffffffffffffffffffffffffffffffffffff16021790555050565b8280546104b29061084a565b90600052602060002090601f0160209004810192826104d4576000855561051b565b82601f106104ed57805160ff191683800117855561051b565b8280016001018555821561051b579182015b8281111561051a5782518255916020019190600101906104ff565b5b509050610528919061052c565b5090565b5b8082111561054557600081600090555060010161052d565b5090565b600061055c6105578461077f565b61075a565b90508281526020810184848401111561057457600080fd5b61057f848285610808565b509392505050565b60008135905061059681610994565b92915050565b600082601f8301126105ad57600080fd5b81356105bd848260208601610549565b91505092915050565b6000813590506105d5816109ab565b92915050565b6000602082840312156105ed57600080fd5b60006105fb84828501610587565b91505092915050565b60006020828403121561061657600080fd5b6000610624848285016105c6565b91505092915050565b6000806040838503121561064057600080fd5b600061064e858286016105c6565b925050602083013567ffffffffffffffff81111561066b57600080fd5b6106778582860161059c565b9150509250929050565b61068a816107cc565b82525050565b600061069b826107b0565b6106a581856107bb565b93506106b5818560208601610817565b6106be81610983565b840191505092915050565b6106d2816107fe565b82525050565b60006020820190506106ed6000830184610681565b92915050565b600060208201905061070860008301846106c9565b92915050565b600060808201905061072360008301876106c9565b81810360208301526107358186610690565b905061074460408301856106c9565b61075160608301846106c9565b95945050505050565b6000610764610775565b9050610770828261087c565b919050565b6000604051905090565b600067ffffffffffffffff82111561079a57610799610954565b5b6107a382610983565b9050602081019050919050565b600081519050919050565b600082825260208201905092915050565b60006107d7826107de565b9050919050565b600073ffffffffffffffffffffffffffffffffffffffff82169050919050565b6000819050919050565b82818337600083830152505050565b60005b8381101561083557808201518184015260208101905061081a565b83811115610844576000848401525b50505050565b6000600282049050600182168061086257607f821691505b6020821081141561087657610875610925565b5b50919050565b61088582610983565b810181811067ffffffffffffffff821117156108a4576108a3610954565b5b80604052505050565b60006108b8826107fe565b91507fffffffffffffffffffffffffffffffffffffffffffffffffffffffffffffffff8214156108eb576108ea6108f6565b5b600182019050919050565b7f4e487b7100000000000000000000000000000000000000000000000000000000600052601160045260246000fd5b7f4e487b7100000000000000000000000000000000000000000000000000000000600052602260045260246000fd5b7f4e487b7100000000000000000000000000000000000000000000000000000000600052604160045260246000fd5b6000601f19601f8301169050919050565b61099d816107cc565b81146109a857600080fd5b50565b6109b4816107fe565b81146109bf57600080fd5b5056fea26469706673582212206b3e167a32d85fad1075832745f309d54d8a7e85a1ffb78075b60b032aeaab5e64736f6c63430008020033",
  "immutableReferences": {},
  "source": "pragma solidity ^0.8.2;\n\nimport '../helpers/BaseStorage.sol';\n\ncontract TweetStorage is BaseStorage {\n  mapping(uint => Tweet) public tweets;\n  \n  struct Tweet {\n    uint id;\n    string text;\n    uint userId;\n    uint postedAt;\n  }\n\n  uint latestTweetId = 0;\n\n  function createTweet(uint _userId, string memory _text) public onlyController returns(uint) {\n    latestTweetId++;\n\n    tweets[latestTweetId] = Tweet(latestTweetId, _text, _userId, block.timestamp);\n\n    return latestTweetId;\n  }\n\n}",
  "sourcePath": "/Users/adamgee/Projects/adamatronix/tweether/contracts/tweets/TweetStorage.sol",
  "compiler": {
    "name": "solc",
    "version": "0.8.2+commit.661d1103.Emscripten.clang"
  },
  "schemaVersion": "3.3.4",
  "updatedAt": "2021-03-18T06:58:43.881Z",
  "networkType": "ethereum",
  "devdoc": {
    "kind": "dev",
    "methods": {},
    "version": 1
  },
  "userdoc": {
    "kind": "user",
    "methods": {},
    "version": 1
  }
}