{
  "contractName": "UserStorage",
  "abi": [
    {
      "inputs": [],
      "name": "controllerAddr",
      "outputs": [
        {
          "internalType": "address",
          "name": "",
          "type": "address"
        }
      ],
      "stateMutability": "view",
      "type": "function",
      "constant": true
    },
    {
      "inputs": [],
      "name": "ownerAddr",
      "outputs": [
        {
          "internalType": "address",
          "name": "",
          "type": "address"
        }
      ],
      "stateMutability": "view",
      "type": "function",
      "constant": true
    },
    {
      "inputs": [
        {
          "internalType": "uint256",
          "name": "",
          "type": "uint256"
        }
      ],
      "name": "profiles",
      "outputs": [
        {
          "internalType": "uint256",
          "name": "id",
          "type": "uint256"
        },
        {
          "internalType": "bytes32",
          "name": "username",
          "type": "bytes32"
        }
      ],
      "stateMutability": "view",
      "type": "function",
      "constant": true
    },
    {
      "inputs": [
        {
          "internalType": "address",
          "name": "_controllerAddr",
          "type": "address"
        }
      ],
      "name": "setControllerAddr",
      "outputs": [],
      "stateMutability": "nonpayable",
      "type": "function"
    },
    {
      "inputs": [
        {
          "internalType": "address",
          "name": "_newOwner",
          "type": "address"
        }
      ],
      "name": "transferOwnership",
      "outputs": [],
      "stateMutability": "nonpayable",
      "type": "function"
    },
    {
      "inputs": [
        {
          "internalType": "bytes32",
          "name": "_username",
          "type": "bytes32"
        }
      ],
      "name": "createUser",
      "outputs": [
        {
          "internalType": "uint256",
          "name": "",
          "type": "uint256"
        }
      ],
      "stateMutability": "nonpayable",
      "type": "function"
    }
  ],
  "bytecode": "0x6080604052600060035534801561001557600080fd5b50336000806101000a81548173ffffffffffffffffffffffffffffffffffffffff021916908373ffffffffffffffffffffffffffffffffffffffff16021790555061065b806100656000396000f3fe608060405234801561001057600080fd5b50600436106100625760003560e01c80636981fa7d146100675780639c675eaa14610083578063abf7bfd8146100a1578063c36fe3d6146100d1578063ee255c5714610102578063f2fde38b14610120575b600080fd5b610081600480360381019061007c919061041b565b61013c565b005b61008b6101d8565b60405161009891906104c3565b60405180910390f35b6100bb60048036038101906100b69190610444565b6101fc565b6040516100c891906104de565b60405180910390f35b6100eb60048036038101906100e6919061046d565b6102bd565b6040516100f99291906104f9565b60405180910390f35b61010a6102e1565b60405161011791906104c3565b60405180910390f35b61013a6004803603810190610135919061041b565b610307565b005b60008054906101000a900473ffffffffffffffffffffffffffffffffffffffff1673ffffffffffffffffffffffffffffffffffffffff163373ffffffffffffffffffffffffffffffffffffffff161461019457600080fd5b80600160006101000a81548173ffffffffffffffffffffffffffffffffffffffff021916908373ffffffffffffffffffffffffffffffffffffffff16021790555050565b60008054906101000a900473ffffffffffffffffffffffffffffffffffffffff1681565b6000600160009054906101000a900473ffffffffffffffffffffffffffffffffffffffff1673ffffffffffffffffffffffffffffffffffffffff163373ffffffffffffffffffffffffffffffffffffffff161461025857600080fd5b6003600081548092919061026b90610568565b9190505550604051806040016040528060035481526020018381525060026000600354815260200190815260200160002060008201518160000155602082015181600101559050506003549050919050565b60026020528060005260406000206000915090508060000154908060010154905082565b600160009054906101000a900473ffffffffffffffffffffffffffffffffffffffff1681565b60008054906101000a900473ffffffffffffffffffffffffffffffffffffffff1673ffffffffffffffffffffffffffffffffffffffff163373ffffffffffffffffffffffffffffffffffffffff161461035f57600080fd5b600073ffffffffffffffffffffffffffffffffffffffff168173ffffffffffffffffffffffffffffffffffffffff16141561039957600080fd5b806000806101000a81548173ffffffffffffffffffffffffffffffffffffffff021916908373ffffffffffffffffffffffffffffffffffffffff16021790555050565b6000813590506103eb816105e0565b92915050565b600081359050610400816105f7565b92915050565b6000813590506104158161060e565b92915050565b60006020828403121561042d57600080fd5b600061043b848285016103dc565b91505092915050565b60006020828403121561045657600080fd5b6000610464848285016103f1565b91505092915050565b60006020828403121561047f57600080fd5b600061048d84828501610406565b91505092915050565b61049f81610522565b82525050565b6104ae81610534565b82525050565b6104bd8161055e565b82525050565b60006020820190506104d86000830184610496565b92915050565b60006020820190506104f360008301846104b4565b92915050565b600060408201905061050e60008301856104b4565b61051b60208301846104a5565b9392505050565b600061052d8261053e565b9050919050565b6000819050919050565b600073ffffffffffffffffffffffffffffffffffffffff82169050919050565b6000819050919050565b60006105738261055e565b91507fffffffffffffffffffffffffffffffffffffffffffffffffffffffffffffffff8214156105a6576105a56105b1565b5b600182019050919050565b7f4e487b7100000000000000000000000000000000000000000000000000000000600052601160045260246000fd5b6105e981610522565b81146105f457600080fd5b50565b61060081610534565b811461060b57600080fd5b50565b6106178161055e565b811461062257600080fd5b5056fea26469706673582212205eda045c823f7b3faebebe31a150192af7bfc3bd6242dc5170ced252ae4c245e64736f6c63430008020033",
  "immutableReferences": {},
  "source": "pragma solidity ^0.8.2;\n\nimport '../helpers/BaseStorage.sol';\n\ncontract UserStorage is BaseStorage {\n\n  mapping(uint => Profile) public profiles;\n\n  struct Profile {\n    uint id;\n    bytes32 username;\n  }\n\n  uint latestUserId = 0;\n\n\n  function createUser(bytes32 _username) public onlyController returns(uint) {\n    latestUserId++;\n    profiles[latestUserId] = Profile(latestUserId, _username);\n    return latestUserId;\n  }\n}",
  "sourcePath": "/Users/adamgee/Projects/adamatronix/tweether/contracts/users/UserStorage.sol",
  "compiler": {
    "name": "solc",
    "version": "0.8.2+commit.661d1103.Emscripten.clang"
  },
  "schemaVersion": "3.3.4",
  "updatedAt": "2021-03-17T07:32:06.834Z",
  "networkType": "ethereum",
  "devdoc": {
    "kind": "dev",
    "methods": {},
    "version": 1
  },
  "userdoc": {
    "kind": "user",
    "methods": {},
    "version": 1
  }
}