{
  "contractName": "UserController",
  "abi": [
    {
      "inputs": [],
      "name": "ownerAddr",
      "outputs": [
        {
          "internalType": "address",
          "name": "",
          "type": "address"
        }
      ],
      "stateMutability": "view",
      "type": "function",
      "constant": true
    },
    {
      "inputs": [
        {
          "internalType": "address",
          "name": "_managerAddr",
          "type": "address"
        }
      ],
      "name": "setManagerAddr",
      "outputs": [],
      "stateMutability": "nonpayable",
      "type": "function"
    },
    {
      "inputs": [
        {
          "internalType": "address",
          "name": "_newOwner",
          "type": "address"
        }
      ],
      "name": "transferOwnership",
      "outputs": [],
      "stateMutability": "nonpayable",
      "type": "function"
    },
    {
      "inputs": [
        {
          "internalType": "bytes32",
          "name": "_username",
          "type": "bytes32"
        }
      ],
      "name": "createUser",
      "outputs": [
        {
          "internalType": "uint256",
          "name": "",
          "type": "uint256"
        }
      ],
      "stateMutability": "nonpayable",
      "type": "function"
    }
  ],
  "bytecode": "0x608060405234801561001057600080fd5b50336000806101000a81548173ffffffffffffffffffffffffffffffffffffffff021916908373ffffffffffffffffffffffffffffffffffffffff16021790555061066d806100606000396000f3fe608060405234801561001057600080fd5b506004361061004c5760003560e01c80637978b231146100515780639c675eaa1461006d578063abf7bfd81461008b578063f2fde38b146100bb575b600080fd5b61006b6004803603810190610066919061040d565b6100d7565b005b610075610173565b6040516100829190610501565b60405180910390f35b6100a560048036038101906100a0919061045f565b610197565b6040516100b29190610557565b60405180910390f35b6100d560048036038101906100d0919061040d565b6102e4565b005b60008054906101000a900473ffffffffffffffffffffffffffffffffffffffff1673ffffffffffffffffffffffffffffffffffffffff163373ffffffffffffffffffffffffffffffffffffffff161461012f57600080fd5b80600160006101000a81548173ffffffffffffffffffffffffffffffffffffffff021916908373ffffffffffffffffffffffffffffffffffffffff16021790555050565b60008054906101000a900473ffffffffffffffffffffffffffffffffffffffff1681565b600080600160009054906101000a900473ffffffffffffffffffffffffffffffffffffffff16905060008173ffffffffffffffffffffffffffffffffffffffff1663bf40fac16040518163ffffffff1660e01b81526004016101f890610537565b60206040518083038186803b15801561021057600080fd5b505afa158015610224573d6000803e3d6000fd5b505050506040513d601f19601f820116820180604052508101906102489190610436565b905060008190508073ffffffffffffffffffffffffffffffffffffffff1663abf7bfd8866040518263ffffffff1660e01b8152600401610288919061051c565b602060405180830381600087803b1580156102a257600080fd5b505af11580156102b6573d6000803e3d6000fd5b505050506040513d601f19601f820116820180604052508101906102da9190610488565b9350505050919050565b60008054906101000a900473ffffffffffffffffffffffffffffffffffffffff1673ffffffffffffffffffffffffffffffffffffffff163373ffffffffffffffffffffffffffffffffffffffff161461033c57600080fd5b600073ffffffffffffffffffffffffffffffffffffffff168173ffffffffffffffffffffffffffffffffffffffff16141561037657600080fd5b806000806101000a81548173ffffffffffffffffffffffffffffffffffffffff021916908373ffffffffffffffffffffffffffffffffffffffff16021790555050565b6000813590506103c8816105f2565b92915050565b6000815190506103dd816105f2565b92915050565b6000813590506103f281610609565b92915050565b60008151905061040781610620565b92915050565b60006020828403121561041f57600080fd5b600061042d848285016103b9565b91505092915050565b60006020828403121561044857600080fd5b6000610456848285016103ce565b91505092915050565b60006020828403121561047157600080fd5b600061047f848285016103e3565b91505092915050565b60006020828403121561049a57600080fd5b60006104a8848285016103f8565b91505092915050565b6104ba81610583565b82525050565b6104c981610595565b82525050565b60006104dc600b83610572565b91506104e7826105c9565b602082019050919050565b6104fb816105bf565b82525050565b600060208201905061051660008301846104b1565b92915050565b600060208201905061053160008301846104c0565b92915050565b60006020820190508181036000830152610550816104cf565b9050919050565b600060208201905061056c60008301846104f2565b92915050565b600082825260208201905092915050565b600061058e8261059f565b9050919050565b6000819050919050565b600073ffffffffffffffffffffffffffffffffffffffff82169050919050565b6000819050919050565b7f5573657253746f72616765000000000000000000000000000000000000000000600082015250565b6105fb81610583565b811461060657600080fd5b50565b61061281610595565b811461061d57600080fd5b50565b610629816105bf565b811461063457600080fd5b5056fea264697066735822122099015c556c8adf85df9b40618ec97a3921264d598be4c939069457faaaa07a4064736f6c63430008020033",
  "immutableReferences": {},
  "source": "pragma solidity ^0.8.2;\n\nimport '../helpers/BaseController.sol';\nimport '../ContractManager.sol';\nimport './UserStorage.sol';\n\ncontract UserController is BaseController {\n  function createUser(bytes32 _username) public returns(uint) {\n    ContractManager _manager = ContractManager(managerAddr);\n    address _userStorageAddr = _manager.getAddress(\"UserStorage\");\n    UserStorage _userStorage = UserStorage(_userStorageAddr);\n    return _userStorage.createUser(_username);\n  }\n}",
  "sourcePath": "/Users/adamgee/Projects/adamatronix/tweether/contracts/users/UserController.sol",
  "compiler": {
    "name": "solc",
    "version": "0.8.2+commit.661d1103.Emscripten.clang"
  },
  "schemaVersion": "3.3.4",
  "updatedAt": "2021-03-17T07:32:06.832Z",
  "networkType": "ethereum",
  "devdoc": {
    "kind": "dev",
    "methods": {},
    "version": 1
  },
  "userdoc": {
    "kind": "user",
    "methods": {},
    "version": 1
  }
}