{
  "contractName": "UserController",
  "abi": [
    {
      "inputs": [],
      "name": "ownerAddr",
      "outputs": [
        {
          "internalType": "address",
          "name": "",
          "type": "address"
        }
      ],
      "stateMutability": "view",
      "type": "function",
      "constant": true
    },
    {
      "inputs": [
        {
          "internalType": "address",
          "name": "_managerAddr",
          "type": "address"
        }
      ],
      "name": "setManagerAddr",
      "outputs": [],
      "stateMutability": "nonpayable",
      "type": "function"
    },
    {
      "inputs": [
        {
          "internalType": "address",
          "name": "_newOwner",
          "type": "address"
        }
      ],
      "name": "transferOwnership",
      "outputs": [],
      "stateMutability": "nonpayable",
      "type": "function"
    },
    {
      "inputs": [
        {
          "internalType": "bytes32",
          "name": "_username",
          "type": "bytes32"
        },
        {
          "internalType": "bytes32",
          "name": "_firstName",
          "type": "bytes32"
        },
        {
          "internalType": "bytes32",
          "name": "_lastName",
          "type": "bytes32"
        },
        {
          "internalType": "string",
          "name": "_bio",
          "type": "string"
        },
        {
          "internalType": "string",
          "name": "_gravatarEmail",
          "type": "string"
        }
      ],
      "name": "createUser",
      "outputs": [
        {
          "internalType": "uint256",
          "name": "",
          "type": "uint256"
        }
      ],
      "stateMutability": "nonpayable",
      "type": "function"
    }
  ],
  "bytecode": "0x608060405234801561001057600080fd5b50336000806101000a81548173ffffffffffffffffffffffffffffffffffffffff021916908373ffffffffffffffffffffffffffffffffffffffff160217905550610a47806100606000396000f3fe608060405234801561001057600080fd5b506004361061004c5760003560e01c80637978b231146100515780639c675eaa1461006d578063f2fde38b1461008b578063f901175b146100a7575b600080fd5b61006b600480360381019061006691906105ad565b6100d7565b005b610075610173565b6040516100829190610758565b60405180910390f35b6100a560048036038101906100a091906105ad565b610197565b005b6100c160048036038101906100bc91906105ff565b61026c565b6040516100ce919061081d565b60405180910390f35b60008054906101000a900473ffffffffffffffffffffffffffffffffffffffff1673ffffffffffffffffffffffffffffffffffffffff163373ffffffffffffffffffffffffffffffffffffffff161461012f57600080fd5b80600160006101000a81548173ffffffffffffffffffffffffffffffffffffffff021916908373ffffffffffffffffffffffffffffffffffffffff16021790555050565b60008054906101000a900473ffffffffffffffffffffffffffffffffffffffff1681565b60008054906101000a900473ffffffffffffffffffffffffffffffffffffffff1673ffffffffffffffffffffffffffffffffffffffff163373ffffffffffffffffffffffffffffffffffffffff16146101ef57600080fd5b600073ffffffffffffffffffffffffffffffffffffffff168173ffffffffffffffffffffffffffffffffffffffff16141561022957600080fd5b806000806101000a81548173ffffffffffffffffffffffffffffffffffffffff021916908373ffffffffffffffffffffffffffffffffffffffff16021790555050565b600080600160009054906101000a900473ffffffffffffffffffffffffffffffffffffffff16905060008173ffffffffffffffffffffffffffffffffffffffff1663bf40fac16040518163ffffffff1660e01b81526004016102cd906107fd565b60206040518083038186803b1580156102e557600080fd5b505afa1580156102f9573d6000803e3d6000fd5b505050506040513d601f19601f8201168201806040525081019061031d91906105d6565b9050600081905060008173ffffffffffffffffffffffffffffffffffffffff166382d38954336040518263ffffffff1660e01b815260040161035f9190610758565b60206040518083038186803b15801561037757600080fd5b505afa15801561038b573d6000803e3d6000fd5b505050506040513d601f19601f820116820180604052508101906103af91906106a6565b146103b957600080fd5b60008173ffffffffffffffffffffffffffffffffffffffff1663ec4d88d78b6040518263ffffffff1660e01b81526004016103f491906107e2565b60206040518083038186803b15801561040c57600080fd5b505afa158015610420573d6000803e3d6000fd5b505050506040513d601f19601f8201168201806040525081019061044491906106a6565b1461044e57600080fd5b8073ffffffffffffffffffffffffffffffffffffffff1663d399e63d338b8b8b8b8b6040518763ffffffff1660e01b815260040161049196959493929190610773565b602060405180830381600087803b1580156104ab57600080fd5b505af11580156104bf573d6000803e3d6000fd5b505050506040513d601f19601f820116820180604052508101906104e391906106a6565b935050505095945050505050565b60006105046104ff8461085d565b610838565b90508281526020810184848401111561051c57600080fd5b6105278482856108f0565b509392505050565b60008135905061053e816109cc565b92915050565b600081519050610553816109cc565b92915050565b600081359050610568816109e3565b92915050565b600082601f83011261057f57600080fd5b813561058f8482602086016104f1565b91505092915050565b6000815190506105a7816109fa565b92915050565b6000602082840312156105bf57600080fd5b60006105cd8482850161052f565b91505092915050565b6000602082840312156105e857600080fd5b60006105f684828501610544565b91505092915050565b600080600080600060a0868803121561061757600080fd5b600061062588828901610559565b955050602061063688828901610559565b945050604061064788828901610559565b935050606086013567ffffffffffffffff81111561066457600080fd5b6106708882890161056e565b925050608086013567ffffffffffffffff81111561068d57600080fd5b6106998882890161056e565b9150509295509295909350565b6000602082840312156106b857600080fd5b60006106c684828501610598565b91505092915050565b6106d8816108aa565b82525050565b6106e7816108bc565b82525050565b60006106f88261088e565b6107028185610899565b93506107128185602086016108ff565b61071b81610992565b840191505092915050565b6000610733600b83610899565b915061073e826109a3565b602082019050919050565b610752816108e6565b82525050565b600060208201905061076d60008301846106cf565b92915050565b600060c08201905061078860008301896106cf565b61079560208301886106de565b6107a260408301876106de565b6107af60608301866106de565b81810360808301526107c181856106ed565b905081810360a08301526107d581846106ed565b9050979650505050505050565b60006020820190506107f760008301846106de565b92915050565b6000602082019050818103600083015261081681610726565b9050919050565b60006020820190506108326000830184610749565b92915050565b6000610842610853565b905061084e8282610932565b919050565b6000604051905090565b600067ffffffffffffffff82111561087857610877610963565b5b61088182610992565b9050602081019050919050565b600081519050919050565b600082825260208201905092915050565b60006108b5826108c6565b9050919050565b6000819050919050565b600073ffffffffffffffffffffffffffffffffffffffff82169050919050565b6000819050919050565b82818337600083830152505050565b60005b8381101561091d578082015181840152602081019050610902565b8381111561092c576000848401525b50505050565b61093b82610992565b810181811067ffffffffffffffff8211171561095a57610959610963565b5b80604052505050565b7f4e487b7100000000000000000000000000000000000000000000000000000000600052604160045260246000fd5b6000601f19601f8301169050919050565b7f5573657253746f72616765000000000000000000000000000000000000000000600082015250565b6109d5816108aa565b81146109e057600080fd5b50565b6109ec816108bc565b81146109f757600080fd5b50565b610a03816108e6565b8114610a0e57600080fd5b5056fea26469706673582212209f340e14141164b83a7166f625372318a6df057b700cf6043b1b82be69a3041b64736f6c63430008020033",
  "immutableReferences": {},
  "source": "pragma solidity ^0.8.2;\n\nimport '../helpers/BaseController.sol';\nimport '../ContractManager.sol';\nimport './UserStorage.sol';\n\ncontract UserController is BaseController {\n  function createUser(\n    bytes32 _username,\n    bytes32 _firstName,\n    bytes32 _lastName,\n    string memory _bio,\n    string memory _gravatarEmail\n  ) public returns(uint) {\n    ContractManager _manager = ContractManager(managerAddr);\n    address _userStorageAddr = _manager.getAddress(\"UserStorage\");\n    UserStorage _storage = UserStorage(_userStorageAddr);\n\n    require(_storage.addresses(msg.sender) == 0);\n    require(_storage.usernames(_username) == 0);\n\n\n    return _storage.createUser(\n      msg.sender,\n      _username,\n      _firstName,\n      _lastName,\n      _bio,\n      _gravatarEmail\n    );\n  }\n}",
  "sourcePath": "/Users/adamgee/Projects/adamatronix/tweether/contracts/users/UserController.sol",
  "compiler": {
    "name": "solc",
    "version": "0.8.2+commit.661d1103.Emscripten.clang"
  },
  "schemaVersion": "3.3.4",
  "updatedAt": "2021-03-18T06:58:43.468Z",
  "networkType": "ethereum",
  "devdoc": {
    "kind": "dev",
    "methods": {},
    "version": 1
  },
  "userdoc": {
    "kind": "user",
    "methods": {},
    "version": 1
  }
}